:100000000C9437000C945F000C945F000C945F001C
:100010000C945F000C945F000C945F000C945F00E4
:100020000C945F000C945F000C945F000C945F00D4
:100030000C945F000C945F000C945F000C945F00C4
:100040000C9491000C945F000C94AD010C94E701AA
:100050000C945F000C945F000C945F000C945F00A4
:100060000C945F000C945F006F00A30275001124D4
:100070001FBECFEFD8E0DEBFCDBF11E0A0E0B1E002
:10008000EAE6FCE002C005900D92AE32B107D9F766
:1000900011E0AEE2B1E001C01D92AC3EB107E1F764
:1000A00010E0CCE6D0E004C02297FE010E942406B6
:1000B000C836D107C9F70E948A000C94B6050C9483
:1000C000000040E052EC61E070E08EE391E00E94BD
:1000D000220266E071E08EE391E00C9437036CE15C
:1000E00071E08EE291E00C94AE038EE291E00C940C
:1000F00040038EE391E00E941601181619064CF495
:100100008EE391E00E944301682F8EE391E00C940E
:10011000390308950E94DB000E9461000E9479006B
:10012000FDCF1F920F920FB60F9211242F933F9382
:100130008F939F93AF93BF93809136019091370136
:10014000A0913801B09139013091350123E0230F9E
:100150002D3720F40196A11DB11D05C026E8230FFF
:100160000296A11DB11D2093350180933601909315
:100170003701A0933801B093390180913A019091F1
:100180003B01A0913C01B0913D010196A11DB11D23
:1001900080933A0190933B01A0933C01B0933D01C1
:1001A000BF91AF919F918F913F912F910F900FBE73
:1001B0000F901F901895789484B5826084BD84B5A3
:1001C000816084BD85B5826085BD85B5816085BD52
:1001D000EEE6F0E0808181608083E1E8F0E010826B
:1001E000808182608083808181608083E0E8F0E0AC
:1001F000808181608083E1EBF0E080818460808396
:10020000E0EBF0E0808181608083EAE7F0E08081CC
:10021000846080838081826080838081816080832C
:100220008081806880831092C1000895FC0124853C
:100230003585F901E05CFF4F80819181F901EE5B2A
:10024000FF4F20813181821B930B8F739927089573
:10025000FC0184859585FC01E05CFF4F4081518164
:10026000FC01EE5BFF4F208131814217530741F0C3
:100270000190F081E02DE80FF91F808190E0089552
:100280008FEF9FEF0895FC0184859585FC01E05C6C
:10029000FF4F40815181FC01EE5BFF4F2081318196
:1002A0004217530779F0A081B181A80FB91F8C9133
:1002B000208131812F5F3F4F2F733327318320837C
:1002C00090E008958FEF9FEF0895FC0181A18823AE
:1002D00029F0A489B5898C9186FFFBCF11A20895DE
:1002E000CF93DF93FC0126853785D901A05CBF4FF2
:1002F0008D919C91119701968F739927E901CE5B9F
:10030000DF4F4881598184179507D9F30D90BC912F
:10031000A02DA20FB31F6C93A685B785A05CBF4F1D
:1003200011969C938E93A689B7892C9181E090E0D9
:10033000078C02C0880F991F0A94E2F7282B2C9390
:1003400081E081A30488F589E02D80818064808329
:1003500081E090E0DF91CF9108951F920F920FB648
:100360000F9211242F933F934F938F939F93EF936B
:10037000FF938091C00082FD1CC04091C600809117
:10038000E4019091E50101968F7399272091E60190
:100390003091E7018217930771F0E091E401F09149
:1003A000E501EC55FE4F40839093E5018093E40115
:1003B00002C08091C600FF91EF919F918F914F9164
:1003C0003F912F910F900FBE0F901F9018951F9285
:1003D0000F920FB60F9211242F933F938F939F93F9
:1003E000EF93FF932091A0013091A1018091A20190
:1003F0009091A3012817390731F48091C1008F7DB6
:100400008093C10014C0E091A201F091A301E05AD1
:10041000FE4F20818091A2019091A30101968F73DC
:1004200099279093A3018093A2012093C600FF9186
:10043000EF919F918F913F912F910F900FBE0F9051
:100440001F901895CF92DF92EF92FF92CF93DF9398
:10045000EC016A017B01411581EE580761057105C8
:10046000F9F0EC89FD8981E090E008A002C0880FD6
:10047000991F0A94E2F7808360E079E08DE390E0D1
:10048000A70196010E94C90521503109410951096E
:100490005695479537952795211580E1380798F0AF
:1004A000EC89FD89108260E874E88EE190E0A70194
:1004B00096010E94C90521503109410951095695FB
:1004C000479537952795E889F9893083EA89FB892B
:1004D000208319A2EE89FF89408181E090E09C0190
:1004E0000C8C02C0220F331F0A94E2F7422B408388
:1004F000EE89FF8940819C010D8C02C0220F331FC1
:100500000A94E2F7422B4083EE89FF8940819C01E7
:100510000E8C02C0220F331F0A94E2F7422B408355
:10052000EE89FF8920810F8C02C0880F991F0A94E1
:10053000E2F7809582238083DF91CF91FF90EF9047
:10054000DF90CF900895109241011092400188EE03
:1005500093E0A0E0B0E08093420190934301A09328
:100560004401B093450181E291E090933F01809373
:100570003E0184EA91E090934B0180934A0180E62A
:1005800091E090934D0180934C0185EC90E0909325
:100590004F0180934E0184EC90E090935101809341
:1005A000500180EC90E0909353018093520181ECD4
:1005B00090E0909355018093540182EC90E09093E9
:1005C00057018093560186EC90E0909359018093F7
:1005D000580184E080935A0183E080935B0187E0B7
:1005E00080935C0185E080935D0181E080935E01F2
:1005F0000895CF92DF92EF92FF920F931F93CF93C4
:10060000DF936C017A01EB01E60EF71E00E010E0CB
:10061000CE15DF0561F06991D601ED91FC91019055
:10062000F081E02DC6010995080F191FF1CFC8010F
:10063000DF91CF911F910F91FF90EF90DF90CF90BE
:1006400008956115710581F0DB010D900020E9F737
:10065000AD0141505109461B570BDC01ED91FC9156
:100660000280F381E02D099480E090E008950C94DD
:100670002103DC01ED91FC910190F081E02D0994C2
:10068000FC01808191810C945D04CF93DF93EC0198
:1006900088819981009711F00E945D041982188267
:1006A0001D821C821B821A82DF91CF9108950F93C5
:1006B0001F93CF93DF93EC018B016F5F7F4F888196
:1006C00099810E94EC04009731F0998388831B8301
:1006D0000A8381E001C080E0DF91CF911F910F91EB
:1006E0000895CF93DF93EC0188819981892B29F0BC
:1006F0008A819B818617970760F4CE010E94570379
:10070000882341F08C819D81892B19F4E881F9813E
:10071000108281E0DF91CF910895EF92FF920F93C5
:100720001F93CF93DF93EC017B018A01BA010E94F2
:100730007103811104C0CE010E94450307C01D83CF
:100740000C83B701888199810E94C205CE01DF9197
:10075000CF911F910F91FF90EF900895FC011182AE
:10076000108213821282158214821682611571051D
:1007700059F0FB0101900020E9F7AF014150510908
:10078000461B570B0C948D030895CF93DF93823053
:10079000910510F482E090E0E091EA01F091EB0124
:1007A00020E030E0A0E0B0E0309739F140815181A5
:1007B00048175907B8F04817590771F48281938197
:1007C000109729F013969C938E9312972CC09093B8
:1007D000EB018093EA0127C02115310531F0421762
:1007E000530718F0A901DB0101C0EF019A01BD0117
:1007F000DF010280F381E02DD7CF21153105F9F01B
:10080000281B390B2430310580F48A819B816115C6
:10081000710521F0FB019383828304C09093EB0167
:100820008093EA01FE01329644C0FE01E20FF31FFD
:100830008193919322503109398328833AC02091C2
:10084000E8013091E901232B41F42091020130911C
:1008500003013093E9012093E801209100013091D8
:1008600001012115310541F42DB73EB74091040136
:1008700050910501241B350BE091E801F091E9014D
:10088000E217F307A0F42E1B3F0B2817390778F067
:10089000AC014E5F5F4F2417350748F04E0F5F1FC6
:1008A0005093E9014093E8018193919302C0E0E005
:1008B000F0E0CF01DF91CF910895CF93DF930097C0
:1008C00009F487C0FC01329713821282C091EA01B9
:1008D000D091EB01209781F420813181280F391FBD
:1008E0008091E8019091E9018217930779F5F093DF
:1008F000E901E093E8016DC0DE0120E030E0AE17D1
:10090000BF0750F412964D915C9113979D014115CC
:10091000510509F1DA01F3CFB383A28340815181FC
:10092000840F951F8A179B0771F48D919C911197E5
:10093000840F951F02969183808312968D919C91CE
:100940001397938382832115310529F4F093EB01EA
:10095000E093EA013EC0D9011396FC93EE931297FF
:100960004D915D91A40FB51FEA17FB0779F48081C3
:100970009181840F951F0296D90111969C938E93B5
:100980008281938113969C938E931297E0E0F0E01E
:100990008A819B81009719F0FE01EC01F9CFCE010D
:1009A000029628813981820F931F2091E8013091AE
:1009B000E9012817390769F4309729F41092EB01FF
:1009C0001092EA0102C013821282D093E901C0930F
:1009D000E801DF91CF910895A0E0B0E0E2EFF4E00C
:1009E0000C94EF05EC01CB01209719F40E94C5038C
:1009F000B8C0FE01E60FF71F9E0122503109E21731
:100A0000F30708F4ACC0D9010D911C91119706179A
:100A10001707B8F00530110508F49FC0A80144502D
:100A200051094617570708F498C002501109061BD0
:100A3000170B019311936D937C93CF010E945D047A
:100A40008CC05B01A01AB10A4E01800E911EA091CC
:100A5000EA01B091EB01612C712C60E070E010971D
:100A600009F449C0A815B905C9F5ED90FC90119796
:100A7000670142E0C40ED11CCA14DB0478F14701BF
:100A80008A189B08640142E0C40ED11C1296BC90E7
:100A900012971396AC91B5E0CB16D10440F0B28218
:100AA000A38391828082D9018D939C9309C00E5FAC
:100AB0001F4F0E0D1F1DF90111830083EB2DFA2F1F
:100AC0006115710531F0DB011396FC93EE931297DB
:100AD00044C0F093EB01E093EA013FC06D917C913B
:100AE00011976616770608F43B01BD0112960D902A
:100AF000BC91A02DB4CF6091E8017091E901681517
:100B00007905E9F468167906D0F440910001509116
:100B100001014115510541F44DB75EB760910401E3
:100B200070910501461B570BE417F507C0F4F093CD
:100B3000E901E093E801F901918380830EC00E94EE
:100B4000C5037C01009759F0A801BE010E94B905B8
:100B5000CE010E945D04C70104C0CE0102C080E046
:100B600090E0CDB7DEB7EEE00C940B06F8940C9451
:100B70002806FB01DC0102C001900D92415050405B
:100B8000D8F70895FB01DC0101900D920020E1F7F8
:100B90000895A1E21A2EAA1BBB1BFD010DC0AA1FBE
:100BA000BB1FEE1FFF1FA217B307E407F50720F0D6
:100BB000A21BB30BE40BF50B661F771F881F991F51
:100BC0001A9469F760957095809590959B01AC019A
:100BD000BD01CF0108952F923F924F925F926F9285
:100BE0007F928F929F92AF92BF92CF92DF92EF92BD
:100BF000FF920F931F93CF93DF93CDB7DEB7CA1B3E
:100C0000DB0B0FB6F894DEBF0FBECDBF09942A8868
:100C1000398848885F846E847D848C849B84AA8410
:100C2000B984C884DF80EE80FD800C811B81AA819D
:100C3000B981CE0FD11D0FB6F894DEBF0FBECDBF68
:100C4000ED010895EE0FFF1F0590F491E02D09943A
:100C500010E0CCE6D0E004C0FE010E9424062296FB
:0A0C6000CE36D107C9F7F894FFCF94
:100C6A000000EC012000496E70757420796F75726E
:100C7A00206368617261637465720A0D0000000086
:0E0C8A00007001F90216014301280165010006
:00000001FF
